{
    "contractName": "projectInfo",
    "abi": [
        {
            "inputs": [
                {
                    "internalType": "int256",
                    "name": "projectId",
                    "type": "int256"
                },
                {
                    "internalType": "string",
                    "name": "name",
                    "type": "string"
                },
                {
                    "internalType": "string",
                    "name": "category",
                    "type": "string"
                },
                {
                    "internalType": "string",
                    "name": "designation",
                    "type": "string"
                }
            ],
            "name": "addproject",
            "outputs": [],
            "stateMutability": "nonpayable",
            "type": "function"
        },
        {
            "inputs": [
                {
                    "internalType": "int256",
                    "name": "projectId",
                    "type": "int256"
                }
            ],
            "name": "getproject",
            "outputs": [
                {
                    "internalType": "string",
                    "name": "",
                    "type": "string"
                },
                {
                    "internalType": "string",
                    "name": "",
                    "type": "string"
                },
                {
                    "internalType": "string",
                    "name": "",
                    "type": "string"
                }
            ],
            "stateMutability": "view",
            "type": "function"
        }
    ],
    "bytecode": "608060405234801561001057600080fd5b5061075d806100206000396000f3fe608060405234801561001057600080fd5b50600436106100365760003560e01c80635ec191be1461003b578063ec960a6614610066575b600080fd5b61004e6100493660046103ca565b61007b565b60405161005d93929190610429565b60405180910390f35b61007961007436600461050f565b610306565b005b606080606060005b6000548110156102b65760008082815481106100a1576100a16105a1565b9060005260206000209060040201604051806080016040529081600082015481526020016001820180546100d4906105b7565b80601f0160208091040260200160405190810160405280929190818152602001828054610100906105b7565b801561014d5780601f106101225761010080835404028352916020019161014d565b820191906000526020600020905b81548152906001019060200180831161013057829003601f168201915b50505050508152602001600282018054610166906105b7565b80601f0160208091040260200160405190810160405280929190818152602001828054610192906105b7565b80156101df5780601f106101b4576101008083540402835291602001916101df565b820191906000526020600020905b8154815290600101906020018083116101c257829003601f168201915b505050505081526020016003820180546101f8906105b7565b80601f0160208091040260200160405190810160405280929190818152602001828054610224906105b7565b80156102715780601f1061024657610100808354040283529160200191610271565b820191906000526020600020905b81548152906001019060200180831161025457829003601f168201915b5050505050815250509050858160000151036102a35780602001518160400151826060015194509450945050506102ff565b50806102ae816105f1565b915050610083565b5050604080518082018252600980825268139bdd08119bdd5b9960ba1b602080840182905284518086018652838152808201839052855180870190965292855284015290935091505b9193909250565b60408051608081018252858152602081018581529181018490526060810183905260008054600181018255908052815160049091027f290decd9548b62a8d60345a988386fc84ba6bc95484008f6362f93160ef3e56381019182559251919283927f290decd9548b62a8d60345a988386fc84ba6bc95484008f6362f93160ef3e564909101906103969082610667565b50604082015160028201906103ab9082610667565b50606082015160038201906103c09082610667565b5050505050505050565b6000602082840312156103dc57600080fd5b5035919050565b6000815180845260005b81811015610409576020818501810151868301820152016103ed565b506000602082860101526020601f19601f83011685010191505092915050565b60608152600061043c60608301866103e3565b828103602084015261044e81866103e3565b9050828103604084015261046281856103e3565b9695505050505050565b634e487b7160e01b600052604160045260246000fd5b600082601f83011261049357600080fd5b813567ffffffffffffffff808211156104ae576104ae61046c565b604051601f8301601f19908116603f011681019082821181831017156104d6576104d661046c565b816040528381528660208588010111156104ef57600080fd5b836020870160208301376000602085830101528094505050505092915050565b6000806000806080858703121561052557600080fd5b84359350602085013567ffffffffffffffff8082111561054457600080fd5b61055088838901610482565b9450604087013591508082111561056657600080fd5b61057288838901610482565b9350606087013591508082111561058857600080fd5b5061059587828801610482565b91505092959194509250565b634e487b7160e01b600052603260045260246000fd5b600181811c908216806105cb57607f821691505b6020821081036105eb57634e487b7160e01b600052602260045260246000fd5b50919050565b60006001820161061157634e487b7160e01b600052601160045260246000fd5b5060010190565b601f82111561066257600081815260208120601f850160051c8101602086101561063f5750805b601f850160051c820191505b8181101561065e5782815560010161064b565b5050505b505050565b815167ffffffffffffffff8111156106815761068161046c565b6106958161068f84546105b7565b84610618565b602080601f8311600181146106ca57600084156106b25750858301515b600019600386901b1c1916600185901b17855561065e565b600085815260208120601f198616915b828110156106f9578886015182559484019460019091019084016106da565b50858210156107175787850151600019600388901b60f8161c191681555b5050505050600190811b0190555056fea2646970667358221220fb7814d2aa3ad4c50a15baafceacf4a1ae39818c6dc626941bc3080253939b3764736f6c63430008110033",
    "sourcePath": "c:/Users/adamb/decentralized-impact/src/project.sol",
    "compiler": {
        "name": "solc",
        "version": "0.8.17+commit.8df45f5f"
    },
    "functionHashes": {
        "addproject(int256,string,string,string)": "ec960a66",
        "getproject(int256)": "5ec191be"
    },
    "gasEstimates": {
        "creation": {
            "codeDepositCost": "377000",
            "executionCost": "411",
            "totalCost": "377411"
        },
        "external": {
            "addproject(int256,string,string,string)": "infinite",
            "getproject(int256)": "infinite"
        }
    }
}