{
    "contractName": "projectInfo",
    "abi": [
        {
            "inputs": [],
            "stateMutability": "nonpayable",
            "type": "constructor"
        },
        {
            "inputs": [
                {
                    "internalType": "uint256",
                    "name": "projectId",
                    "type": "uint256"
                },
                {
                    "internalType": "string",
                    "name": "name",
                    "type": "string"
                },
                {
                    "internalType": "string",
                    "name": "category",
                    "type": "string"
                },
                {
                    "internalType": "string",
                    "name": "designation",
                    "type": "string"
                }
            ],
            "name": "addproject",
            "outputs": [],
            "stateMutability": "nonpayable",
            "type": "function"
        },
        {
            "inputs": [
                {
                    "internalType": "string",
                    "name": "status",
                    "type": "string"
                },
                {
                    "internalType": "uint256",
                    "name": "projectId",
                    "type": "uint256"
                }
            ],
            "name": "changeStatus",
            "outputs": [],
            "stateMutability": "nonpayable",
            "type": "function"
        },
        {
            "inputs": [
                {
                    "internalType": "uint256",
                    "name": "projectId",
                    "type": "uint256"
                }
            ],
            "name": "getproject",
            "outputs": [
                {
                    "components": [
                        {
                            "internalType": "address payable",
                            "name": "owner",
                            "type": "address"
                        },
                        {
                            "internalType": "uint256",
                            "name": "projectId",
                            "type": "uint256"
                        },
                        {
                            "internalType": "string",
                            "name": "name",
                            "type": "string"
                        },
                        {
                            "internalType": "string",
                            "name": "category",
                            "type": "string"
                        },
                        {
                            "internalType": "string",
                            "name": "designation",
                            "type": "string"
                        },
                        {
                            "internalType": "string",
                            "name": "status",
                            "type": "string"
                        }
                    ],
                    "internalType": "struct projectInfo.project",
                    "name": "",
                    "type": "tuple"
                }
            ],
            "stateMutability": "view",
            "type": "function"
        }
    ],
    "bytecode": "608060405234801561001057600080fd5b50600080546001600160a01b03191633179055610898806100326000396000f3fe608060405234801561001057600080fd5b50600436106100415760003560e01c80631ec735cb146100465780634b384d711461005b578063f3bf64aa14610084575b600080fd5b61005961005436600461054a565b610097565b005b61006e6100693660046105dc565b61016d565b60405161007b919061063b565b60405180910390f35b6100596100923660046106d5565b6103fd565b61009f610468565b60408051808201825260078152661c99599d5cd95960ca1b60208083019190915260a0840191909152606083018590526080830184905282820186815260008881526001808452939020845181546001600160a01b0319166001600160a01b0390911617815591840151928201929092559051829190600282019061012490826107a2565b506060820151600382019061013990826107a2565b506080820151600482019061014e90826107a2565b5060a0820151600582019061016390826107a2565b5050505050505050565b610175610468565b600082815260016020818152604092839020835160c08101855281546001600160a01b03168152928101549183019190915260028101805492939192918401916101be9061071a565b80601f01602080910402602001604051908101604052809291908181526020018280546101ea9061071a565b80156102375780601f1061020c57610100808354040283529160200191610237565b820191906000526020600020905b81548152906001019060200180831161021a57829003601f168201915b505050505081526020016003820180546102509061071a565b80601f016020809104026020016040519081016040528092919081815260200182805461027c9061071a565b80156102c95780601f1061029e576101008083540402835291602001916102c9565b820191906000526020600020905b8154815290600101906020018083116102ac57829003601f168201915b505050505081526020016004820180546102e29061071a565b80601f016020809104026020016040519081016040528092919081815260200182805461030e9061071a565b801561035b5780601f106103305761010080835404028352916020019161035b565b820191906000526020600020905b81548152906001019060200180831161033e57829003601f168201915b505050505081526020016005820180546103749061071a565b80601f01602080910402602001604051908101604052809291908181526020018280546103a09061071a565b80156103ed5780601f106103c2576101008083540402835291602001916103ed565b820191906000526020600020905b8154815290600101906020018083116103d057829003601f168201915b5050505050815250509050919050565b6000546001600160a01b031633146104485760405162461bcd60e51b815260206004820152600a60248201526937b7363c9037bbb732b960b11b604482015260640160405180910390fd5b600081815260016020526040902060050161046383826107a2565b505050565b6040518060c0016040528060006001600160a01b0316815260200160008152602001606081526020016060815260200160608152602001606081525090565b634e487b7160e01b600052604160045260246000fd5b600082601f8301126104ce57600080fd5b813567ffffffffffffffff808211156104e9576104e96104a7565b604051601f8301601f19908116603f01168101908282118183101715610511576105116104a7565b8160405283815286602085880101111561052a57600080fd5b836020870160208301376000602085830101528094505050505092915050565b6000806000806080858703121561056057600080fd5b84359350602085013567ffffffffffffffff8082111561057f57600080fd5b61058b888389016104bd565b945060408701359150808211156105a157600080fd5b6105ad888389016104bd565b935060608701359150808211156105c357600080fd5b506105d0878288016104bd565b91505092959194509250565b6000602082840312156105ee57600080fd5b5035919050565b6000815180845260005b8181101561061b576020818501810151868301820152016105ff565b506000602082860101526020601f19601f83011685010191505092915050565b6020815260018060a01b038251166020820152602082015160408201526000604083015160c0606084015261067360e08401826105f5565b90506060840151601f198085840301608086015261069183836105f5565b925060808601519150808584030160a08601526106ae83836105f5565b925060a08601519150808584030160c0860152506106cc82826105f5565b95945050505050565b600080604083850312156106e857600080fd5b823567ffffffffffffffff8111156106ff57600080fd5b61070b858286016104bd565b95602094909401359450505050565b600181811c9082168061072e57607f821691505b60208210810361074e57634e487b7160e01b600052602260045260246000fd5b50919050565b601f82111561046357600081815260208120601f850160051c8101602086101561077b5750805b601f850160051c820191505b8181101561079a57828155600101610787565b505050505050565b815167ffffffffffffffff8111156107bc576107bc6104a7565b6107d0816107ca845461071a565b84610754565b602080601f83116001811461080557600084156107ed5750858301515b600019600386901b1c1916600185901b17855561079a565b600085815260208120601f198616915b8281101561083457888601518255948401946001909101908401610815565b50858210156108525787850151600019600388901b60f8161c191681555b5050505050600190811b0190555056fea264697066735822122040f47180a954edd719812687e007912ca03ebffbf92370dc5af0f097695f34ec64736f6c63430008110033",
    "sourcePath": "c:/Users/adamb/decentralized-impact/src/project.sol",
    "compiler": {
        "name": "solc",
        "version": "0.8.17+commit.8df45f5f"
    },
    "functionHashes": {
        "addproject(uint256,string,string,string)": "1ec735cb",
        "changeStatus(string,uint256)": "f3bf64aa",
        "getproject(uint256)": "4b384d71"
    },
    "gasEstimates": {
        "creation": {
            "codeDepositCost": "440000",
            "executionCost": "24709",
            "totalCost": "464709"
        },
        "external": {
            "addproject(uint256,string,string,string)": "infinite",
            "changeStatus(string,uint256)": "infinite",
            "getproject(uint256)": "infinite"
        }
    }
}